:020000020000FC
:0200000056C0E8
:0400100013C008C051
:1000200000C018950F931F935A9419F419B71E7FA7
:1000300019BF1F910F9118950F931F932F931120A4
:1000400031F4222011F4332021F11CE3112E1A94F3
:10005000112DCBD4A0E6B0E01496CED41BE3111240
:100060001EC0222011F41CE3212E2A94122DBDD48F
:10007000A450C2D41BE3211212C0332011F41CE39C
:10008000312E3A94132DB1D4A450B6D41BE33112BF
:1000900006C019B71B7F19BFC098C298C19812EC4F
:1000A0001DBD18EF1CBD2F911F910F9118951FE5D5
:1000B0001DBF14E01EBF10EF18BB1FE017BB1127B8
:1000C00014BB18EF15BB1FEF11BB112712BB15E0B6
:1000D00013BF14E01EBD1AE71DBD12E11CBD10E8E0
:1000E00016B910E012BB6BD4979A00000000000014
:1000F00000000000000000000000979811E012BB13
:100100005ED4979A0000000000000000000000008C
:1001100000000000979810E012BB51D4979A00009D
:1001200000000000000000000000000000009798A0
:1001300010E012BB44D4979A0000000000000000B9
:100140000000000000000000979811E012BB37D4B7
:10015000979A00000000000000000000000000006E
:100160000000979813E012BB2AD4979A0000000071
:10017000000000000000000000000000979813E05D
:1001800012BB1DD4979A0000000000000000000080
:10019000000000000000979813E012BB10D4979A5B
:1001A000000000000000000000000000000000004F
:1001B000979812E012BB03D4979A00000000000049
:1001C00000000000000000000000979812E012BB41
:1001D000F6D3979A00000000000000000000000025
:1001E00000000000979818E012BBE9D3979A00002E
:1001F00000000000000000000000000000009798D0
:1002000010E012BBDCD3979A000000000000000051
:10021000000000000000000097981CE012BBCFD344
:10022000979A00000000000000000000000000009D
:100230000000979810E012BBC2D3979A000000000C
:10024000000000000000000000000000979816E089
:1002500012BBB5D3979A0000000000000000000018
:10026000000000000000979810E022E056D53323EC
:1002700009F031E0C6E6D0E0279638833323C39AED
:1002800010E023E04AD5332E24E047D5232E25E085
:1002900044D5132E132D73D310E026E03ED5A0E6EF
:1002A000B0E0132DA2D3A8D3122D9FD3A5D3112D27
:1002B0009CD3A2D310E020E030D5C6E6D0E038834E
:1002C000C1E7D0E02396132F90D330E3130F1A9396
:1002D000122F8BD3130F230F1A932A9310E021E0D0
:1002E0001CD5C6E6D0E021963883C1E7D0E023963E
:1002F000132F7BD330E3130F230F299318837894A4
:10030000A895F8E0E8E524E868D587D545D34AD52F
:10031000E2E6F8E0222761D580D5E4E7F8E023ECB7
:100320005CD57BD539D3ABD43DD52ED33BD51FD5AA
:10033000A89510E0412EE2E8F8E022274ED56DD5D1
:10034000E4E9F8E020E449D568D5C6E6D0E028E045
:1003500044D523E06AD52DE440D522E066D5C0E639
:10036000D0E020E43AD522E060D523E436D522E07F
:100370005CD526E432D522E058D581D419B712FDD8
:100380001BC05520F1F7B59B5FC09B9BCECF9C9BBC
:10039000A5C09D99DACFF8D2C19AC29AC09A12EC40
:1003A0001DBD18EF1CBD19B7146019BFFBD4F9E0CF
:1003B000ECE433D5F1D2B9CFB0E0AEE610E020E006
:1003C000ACD41D9125E0320F31172AF03A50311785
:1003D0001AF0C09A01C0C09810E021E09ED41D918F
:1003E00022E0320F311742F0335031170AF0C29A2F
:1003F0001C912AE512170AF0C2984420A9F555204D
:10040000F1F7B59B21C09B9B90CF9D999ECFBCD20D
:1004100012FFC1CFC7D4ECE5F9E0FFD4ECE6F9E078
:1004200020E4DBD4FAD45520F1F7B59B0DC09B9B9B
:100430007CCF9C9B7ACF9D99F6CF19B71B7F19BFB4
:10044000C098C298C19871CF9FD2ACD4A89517D448
:1004500011E0412EE6EAF8E02227BFD4DED4E6EB35
:10046000F8E020E4BAD4D9D4C6E6D0E025962BE053
:10047000B4D422E0DAD41881112331F4EAECF8E0A4
:100480002BE4ABD4CAD405C0E4ECF8E02BE4A5D44B
:10049000C4D4F5D35520F1F7B59BD6CF9B9B45CF60
:1004A0009C9B06C09D9BB3CF19B712FD85CFDCCFB7
:1004B00021E0C6E6D0E02796188112271883112381
:1004C00031F4C398312F10E022E02ED405C0C39A36
:1004D000312F10E022E028D457D2C6CF55D262D4B3
:1004E000A89512E0412EE0EDF8E0222776D495D4CD
:1004F000E0EEF8E023E471D490D42AE46ED422E054
:10050000AEE6B0E01096C1E7D0E023968ED42AE4A0
:10051000722FC25062D410D407C0272F5ED421E0BE
:1005200084D4CA95272F59D45520F1F7B59B10C014
:100530009B9B19C09C9B03C09D9B38C0F5CF24D2C8
:100540007A3419F4C3957395E8CFCA957A95E5CFB7
:100550002FD29B9B13C018D2188113951A3309F41C
:1005600010E31883DACF24D2B59B08C00DD21881CE
:100570001A951F3209F419E31883CFCFC1E7332747
:100580002396299120531AE0222319F0310F2A953E
:10059000E9F728812053320F10E021E03C93C4D3C7
:1005A000E6D3F9E0ECE3FED338D4F6D1EDD1DFD3D6
:1005B000F9D3A895ECEEF8E022270FD42ED4ECEF77
:1005C000F8E021E40AD429D428E407D423E0AEE6F5
:1005D000B0E0C1E7D0E029D428E4722FC1E7FDD311
:1005E000ABD307C0272FF9D321E01FD4CA95272FFB
:1005F000F4D35520F1F7B59B13C09B9B19C09C9B6E
:1006000003C09D9B3FC0F5CFD3D19B9B1CC0BCD1E9
:10061000C39573957B3409F0E5CFC1E778E4E2CF69
:10062000B3D1188113951A3309F410E31883DACF84
:10063000BFD1B59B08C0A8D118811A951F3209F403
:1006400019E31883CFCFC1E733272991205314E64C
:10065000222321F0310F2A95E9F71AE0299120533E
:10066000222319F0310F2A95E9F728812053320F00
:1006700010E020E03C9358D37AD3F9E0ECE392D336
:10068000CCD38AD181D173D38DD3A895ECE0F9E096
:1006900020E0A3D3C2D3EAE1F9E020E49ED3BDD3A6
:1006A00076E433E0C0E6D0E0272F97D322E0720F44
:1006B000BCD373953A95C1F726E4722FC0E68DD36B
:1006C0003BD307C0272F89D321E0AFD3CA95272F6B
:1006D00084D35520F1F7B59B14C09B9B24C09C9BF1
:1006E00003C09D9B48C0F5CF4FD1C39573957E3411
:1006F00029F07B34D9F37834C9F302C0C0E676E43C
:10070000E1CF56D19B9B21C03FD12AE37C3409F431
:1007100026E3793409F426E318811395121709F4B6
:1007200010E31883CFCF44D1B59B0FC02DD129E35F
:100730007C3409F425E3793409F425E318811A950A
:100740001F3209F4122F1883BDCFC0E641D110E04B
:1007500023E0332EE9D23CD110E024E0232EE4D272
:1007600037D110E025E0132EDFD201D3F9E0ECE31E
:1007700019D353D311D108D115D3A89512E0412E26
:10078000ECE0F9E0222729D348D3EAE2F9E020E4BB
:1007900024D343D32DE421D322E0AEE6B0E0169675
:1007A000C1E7D0E0269641D32DE4722FC25015D375
:1007B000C3D207C0272F11D321E037D3CA95272FE3
:1007C0000CD35520F1F7B59B10C09B9B1DC09C9B83
:1007D00003C09D9BAACDF5CFD7D07D3419F4C39526
:1007E0007395E8CFCA957A95E5CFE2D09B9B1BC065
:1007F000CBD02AE37D3409F423E318811395121733
:1008000009F410E31883D6CFD3D0B59B0CC0BCD06D
:1008100029E37D3409F422E318811A951F3209F483
:10082000122F1883C7CFC1E733272696299120536B
:100830001AE0222319F0310F2A95E9F72881205375
:10084000320F10E026E03C936FD291D2F9E0ECE356
:10085000A9D2E3D2A1D069CD424F4E4A4F555200A2
:100860000000504F4D50452041205649444520310D
:100870002E3500004C55444F204D45524345540001
:10088000000050524553533D202D202020206D6202
:100890006172000020203A20203A20202020543D80
:1008A000202020DF00004348415546464147453A55
:1008B000202020DF000045434C4149524147453A42
:1008C000200000004F4E200000004F464600000070
:1008D00053454C2054454D504552415455524500C6
:1008E00045545556453A202020DF000053454C2002
:1008F00044455052455353494F4E000056494445D4
:100900003A202D2020206D626172000020202053AB
:10091000454C454354494F4E0000484555524520EB
:1009200020203A20203A20200000485953544552B4
:1009300045534953203A202020000000454E52459F
:100940004749535452454D454E5400002044454DAF
:10095000415252414745202121210000204152525D
:100960004554202121212121212100002056414CE4
:10097000494445202D3E206F75692000000010532A
:1009800011F4105401F4089515E0512E112712BFEF
:1009900019B7116019BF08952FEF1FE11F931FEAC8
:1009A0001A95F1F72A95D9F71F911A95B9F7089575
:1009B0002FEF1FEF1A95F1F72A95D9F708952F9386
:1009C00026E01FED1A95F1F72A95D9F72F91089592
:1009D0003327299120531AE0222319F0310F2A9549
:1009E000E9F729912053320F089522271A3018F081
:1009F0001A502395FBCF089530E3130F230F2D9347
:100A00001D930895662755274695379510F4510F85
:100A1000621F679557954795379510F4510F621FE0
:100A2000679557954795379510F4510F621F679555
:100A300057954795379510F4510F621F6795579555
:100A40004795379510F4510F621F67955795479555
:100A5000379510F4510F621F679557954795379555
:100A600010F4510F621F679557954795379510F40D
:100A7000510F621F679557954795379510F4510FA1
:100A8000621F679557954795379510F4510F621F70
:100A9000679557954795379510F4510F621F6795E5
:100AA00057954795379510F4510F621F67955795E5
:100AB0004795379510F4510F621F679557954795E5
:100AC000379510F4510F621F6795579547953795E5
:100AD00010F4510F621F679557954795379510F49D
:100AE000510F621F6795579547953795089555277C
:100AF000661B111F221F551F661F531B640B20F41A
:100B0000530F641F889401C00894111F221F551FA2
:100B1000661F531B640B20F4530F641F889401C09D
:100B20000894111F221F551F661F531B640B20F4CE
:100B3000530F641F889401C00894111F221F551F72
:100B4000661F531B640B20F4530F641F889401C06D
:100B50000894111F221F551F661F531B640B20F49E
:100B6000530F641F889401C00894111F221F551F42
:100B7000661F531B640B20F4530F641F889401C03D
:100B80000894111F221F551F661F531B640B20F46E
:100B9000530F641F889401C00894111F221F551F12
:100BA000661F531B640B20F4530F641F889401C00D
:100BB0000894111F221F551F661F531B640B20F43E
:100BC000530F641F889401C00894111F221F551FE2
:100BD000661F531B640B20F4530F641F889401C0DD
:100BE0000894111F221F551F661F531B640B20F40E
:100BF000530F641F889401C00894111F221F551FB2
:100C0000661F531B640B20F4530F641F889401C0AC
:100C10000894111F221F551F661F531B640B20F4DD
:100C2000530F641F889401C00894111F221F551F81
:100C3000661F531B640B20F4530F641F889401C07C
:100C40000894111F221F551F661F531B640B20F4AD
:100C5000530F641F889401C00894111F221F551F51
:100C6000661F531B640B20F4530F641F889401C04C
:100C70000894111F221F08951D1B240B089511278E
:100C800017B9369A3699FECF14B125B13AE1442707
:100C9000B9DE132F242F31E6442729DF1E50B0E0A0
:100CA000AEE61D93D0E0C6E623969FDE30E3130F39
:100CB0001A93122F9ADE130F230F1A932A9311E01F
:100CC00017B9369A3699FECF14B125B13DE74427BE
:100CD00099DE132F242F3FEF442709DF1D9323961E
:100CE00084DE30E3130F230F2993199312E017B911
:100CF000369A3699FECF14B125B13FE0442782DE03
:100D0000132F242F3EE14427F2DE1C936EDE30E3E6
:100D1000130F230F299318830895E199FECF1FBB6A
:100D20002EBBE09A3DB30895E199FECF1FBB2EBBC9
:100D30003DBBE29AE19A089510E012BB40DE979A1B
:100D400000000000000000000000000000000000A3
:100D500097981EE012BB33DE979A00000000000057
:100D6000000000000000000000009798089510E0C7
:100D700012BB25DE979A0000000000000000000072
:100D800000000000000097981CE012BB18DE979A44
:100D90000000000000000000000000000000000053
:100DA0009798089510E012BB0ADE979A00000000A1
:100DB000000000000000000000000000979811E013
:100DC00012BBFDDD979A000000000000000000004B
:100DD0000000000000009798089520682F93229546
:100DE0002F7022BBECDD979A00000000000000008D
:100DF000000000000000000097982F912F7022BB88
:100E0000DEDD979A000000000000000000000000F6
:100E1000000000009798D3DD0895C895002021F0C8
:100E2000102D0AD03196F9CF0895222321F019917F
:100E300003D02A95FACF08951F9312951F7010645E
:100E400012BBBDDD979A000000000000000000000A
:100E500000000000000097981F911F70106412BBE3
:100E6000AEDD979A000000000000000000000000C6
:0A0E7000000000009798A3DD08952C
:00000001FF
